:020000007F2857
:10000800FF00030E8301AC000A08AD008A010B1D36
:100018001328A40A0319A50A0B11063081008B1CAA
:100028001B288B1086140130A0000030A1002D0879
:0C0038008A002C0E8300FF0E7F0E0900D2
:0E004400831203132B088A002A08820008008A
:1000520022208A110A128000840AAA0A0319AB0A12
:08006200F003031D292808002A
:10006A000030831203132F06031D3D2803302E068A
:10007A00031D44284030F0000030F1006B280030A6
:10008A002F06031D4A2802302E06031D51287930F7
:10009A00F0000030F1006B2800302F06031D5728AE
:1000AA0001302E06031D5E282430F0000030F100D6
:1000BA006B2800302F06031D642800302E06031D0E
:0E00CA006B283030F0000030F1006B28080089
:1000D8008316031387018610831286108B160B165E
:1000E8008B178316811281110110811401110630BA
:0600F800831281000800E4
:1000FE0083120313A001A101A201A301A401A50172
:10010E00A601A701A801A9016C202508013A031D2B
:10011E009228F4302406031DB228A401A501A20AD8
:10012E000319A30A00302906031D9F280330280651
:10013E000130031D0030F00001307004A000A10159
:10014E000030A1040030A100200821040319B228B8
:10015E00A60A0319A70A0030A31BFF30F000003ACD
:10016E00031DC3287008013A031DC3282308513A02
:10017E00031DC32880302206031DCA28A201A30135
:10018E00A80A0319A90A00302906031DD028033036
:10019E002806031DD328861400302706031DD928F0
:1001AE000F302606031DE428A601A701A001A10118
:1001BE00A801A901A201A30186102808AE002908F2
:0C01CE00AF003520700887008C28EC285A
:02400E004A2F37
:00000001FF
