:020000006C2A68
:0400060000000800EE
:10000A00103083120313FD00FD0B092800000800BD
:10001A00083083120313FC002330FD00FD0B132864
:06002A00FC0B1328080086
:1000300083120313E41B1E2887131F288717641BD2
:100040002328071324280717E41A282887122928A9
:100050008716641A2D2807122E28071653183228DF
:10006000071533280711871503208711E4193A284B
:1000700087133B28871764193F2807134028071761
:10008000E41844288712452887166418492807125F
:100090004A28071653184E2807154F2807118715A9
:1000A00003208711531C56280D20572805200800CF
:1000B00083120313DF01E101E2011030E300043099
:1000C000620203188428F0308600630983168600D4
:1000D000032003200F3083120605F0007008E000B3
:1000E000700803197E286108DF00600803197C2866
:1000F000E00CE013DF0A75280430E200E30D631022
:0E0100000430E107E20A5F285F08F000080003
:10010E008312031353105F08E400182053140800E1
:0E011E00033083120313FD00FD0B932808002D
:0E012C008312031352088A0051088200080053
:10013A0058207008DB000F300605F0000319A728C5
:0A014A008F20A0285B08F0000800D9
:10015400BC28803083120313DB00CF28C030DB00BF
:10016400CF289430DB00CF28D430DB00CF28803078
:10017400DB00CF28831203135B08013A0319AB2871
:100184005B08023A0319B0285B08033A0319B32841
:100194005B08043A0319B628B9285C03F0005B082D
:1001A400F0077008DB007008E40018205310DE012B
:1001B4005E085D07840000080319E8285E085D07EF
:1001C40084000008DF008720DE0ADA2853140800C0
:1001D400FC28803083120313DB000F29C030DB00BE
:1001E4000F299430DB000F29D430DB000F29803035
:1001F400DB000F29831203135B08013A0319EB2870
:100204005B08023A0319F0285B08033A0319F32840
:100214005B08043A0319F628F9285C03F0005B082C
:10022400F0077008DB0053147008E4001820531022
:0A0234005D08E400182053140800D0
:10023E00831203135B0884000008031933295B083B
:10024E0084000008F1005C08840071080006031D9C
:10025E003329DB0ADC0A1F295B0884000008F00042
:10026E005C0884000008F002F101031CF103080091
:10027E00013083120313DB000130DC002F30DD0070
:10028E00AA20D401D50180305506F00080307002CE
:10029E00031D5329033054020318E0295408563E17
:1002AE0084000008003A031D65295408563EDA0002
:1002BE009D205A0884007008800055295408563E27
:1002CE00F1009F295408563E840037308000D5290E
:1002DE005408563E840038308000D5295408563EC6
:1002EE00840039308000D5295408563E84003430BD
:1002FE008000D5295408563E840035308000D5291B
:10030E005408563E840036308000D5295408563E97
:10031E00840031308000D5295408563E8400323096
:10032E008000D5295408563E840033308000D529EC
:10033E00710884000008013A0319692971088400C4
:10034E000008023A03196F29710884000008033A65
:10035E0003197529710884000008053A03197B29D1
:10036E00710884000008063A031981297108840077
:10037E000008073A03198729710884000008093A12
:10038E0003198D297108840000080A3A031993296C
:10039E007108840000080B3A031999290230DB001A
:1003AE00540ADC002A30DD00EA20D40A0319D50AEB
:1003BE004A295630DB004D30DC001F21003071061B
:1003CE00031DEB2900307006031DF0290130F000EB
:1003DE000C2A0130DB000130DC003E30DD00AA20AB
:1003EE000630FB001330FC00AD30FD00FD0BFD2987
:1003FE00FC0BFD29FB0BFD2900000000D601D701E7
:0C040E00D8010130E40018203F2908004C
:0A041A00FF3083160313860008006C
:1004240096208A110A128000840AD10A0319D20A7A
:08043400F003031D122A080069
:10043C0083160313871107110712871207138713EB
:10044C0083128711071187130713871207120D20C8
:10045C000D200D20871607168715032087110D20F8
:10046C008715032087110D208715032087110D2078
:10047C0007128715032087110D208715032087117C
:10048C00871287178715032087110D2087130716EE
:10049C0087150320871107128715032087110D205C
:1004AC0087150320871107168715032087110D2048
:1004BC00071287150320871187170717871607164A
:0C04CC008715032087110D205314080031
:1004D800CE22831603130810831208101E2201303F
:1004E800E40018200C30E40018200D223F210130D0
:1004F800E40018200130DB000230DC002030DD0091
:10050800AA20013088060630FB001330FC00AD300D
:10051800FD00FD0B8D2AFC0B8D2AFB0B8D2A00009C
:0605280000007B2A962A68
:10059C0020308400313083120313F0009C30D100E2
:0805AC000230D2001222080007
:1005380046346C3461347334683420347034723423
:0E0548006F34673472346534733473340034A6
:1005560045346E3474346534723420345034613426
:0E0566007334733457346F3472346434003499
:10057400573472346F346E346734203450346134F9
:0E0584007334733457346F347234643400347B
:080592003134323433340034FB
:02400E004A2F37
:00000001FF
